{
  "contractName": "Voting",
  "abi": [
    {
      "inputs": [],
      "stateMutability": "nonpayable",
      "type": "constructor"
    },
    {
      "anonymous": false,
      "inputs": [
        {
          "indexed": true,
          "internalType": "uint256",
          "name": "candidatesId",
          "type": "uint256"
        }
      ],
      "name": "VotedEvent",
      "type": "event"
    },
    {
      "inputs": [
        {
          "internalType": "uint256",
          "name": "",
          "type": "uint256"
        }
      ],
      "name": "candidates",
      "outputs": [
        {
          "internalType": "uint256",
          "name": "id",
          "type": "uint256"
        },
        {
          "internalType": "string",
          "name": "name",
          "type": "string"
        },
        {
          "internalType": "uint256",
          "name": "voteCount",
          "type": "uint256"
        }
      ],
      "stateMutability": "view",
      "type": "function",
      "constant": true
    },
    {
      "inputs": [],
      "name": "candidatesCount",
      "outputs": [
        {
          "internalType": "uint256",
          "name": "",
          "type": "uint256"
        }
      ],
      "stateMutability": "view",
      "type": "function",
      "constant": true
    },
    {
      "inputs": [
        {
          "internalType": "address",
          "name": "",
          "type": "address"
        }
      ],
      "name": "voters",
      "outputs": [
        {
          "internalType": "bool",
          "name": "",
          "type": "bool"
        }
      ],
      "stateMutability": "view",
      "type": "function",
      "constant": true
    },
    {
      "inputs": [
        {
          "internalType": "uint256",
          "name": "_candidatesId",
          "type": "uint256"
        }
      ],
      "name": "vote",
      "outputs": [],
      "stateMutability": "nonpayable",
      "type": "function"
    },
    {
      "inputs": [
        {
          "internalType": "uint256",
          "name": "_candidatesId",
          "type": "uint256"
        }
      ],
      "name": "getCandidate",
      "outputs": [
        {
          "internalType": "uint256",
          "name": "",
          "type": "uint256"
        },
        {
          "internalType": "string",
          "name": "",
          "type": "string"
        },
        {
          "internalType": "uint256",
          "name": "",
          "type": "uint256"
        }
      ],
      "stateMutability": "view",
      "type": "function",
      "constant": true
    }
  ],
  "bytecode": "0x60806040523480156200001157600080fd5b50620000586040518060400160405280600b81526020017f43616e6469646174652031000000000000000000000000000000000000000000815250620000a460201b60201c565b6200009e6040518060400160405280600b81526020017f43616e6469646174652032000000000000000000000000000000000000000000815250620000a460201b60201c565b620002c5565b60026000815480929190620000b99062000219565b919050555060405180606001604052806002548152602001828152602001600081525060008060025481526020019081526020016000206000820151816000015560208201518160010190805190602001906200011892919062000129565b506040820151816002015590505050565b8280546200013790620001e3565b90600052602060002090601f0160209004810192826200015b5760008555620001a7565b82601f106200017657805160ff1916838001178555620001a7565b82800160010185558215620001a7579182015b82811115620001a657825182559160200191906001019062000189565b5b509050620001b69190620001ba565b5090565b5b80821115620001d5576000816000905550600101620001bb565b5090565b6000819050919050565b60006002820490506001821680620001fc57607f821691505b6020821081141562000213576200021262000296565b5b50919050565b60006200022682620001d9565b91507fffffffffffffffffffffffffffffffffffffffffffffffffffffffffffffffff8214156200025c576200025b62000267565b5b600182019050919050565b7f4e487b7100000000000000000000000000000000000000000000000000000000600052601160045260246000fd5b7f4e487b7100000000000000000000000000000000000000000000000000000000600052602260045260246000fd5b6108b880620002d56000396000f3fe608060405234801561001057600080fd5b50600436106100575760003560e01c80630121b93f1461005c5780632d35a8a2146100785780633477ee2e1461009657806335b8e820146100c8578063a3ec138d146100fa575b600080fd5b6100766004803603810190610071919061051f565b61012a565b005b6100806102ba565b60405161008d919061067a565b60405180910390f35b6100b060048036038101906100ab919061051f565b6102c0565b6040516100bf93929190610695565b60405180910390f35b6100e260048036038101906100dd919061051f565b610372565b6040516100f193929190610695565b60405180910390f35b610114600480360381019061010f91906104f6565b6104ac565b604051610121919061061f565b60405180910390f35b600160003373ffffffffffffffffffffffffffffffffffffffff1673ffffffffffffffffffffffffffffffffffffffff16815260200190815260200160002060009054906101000a900460ff16156101b7576040517f08c379a00000000000000000000000000000000000000000000000000000000081526004016101ae9061065a565b60405180910390fd5b6000811180156101c957506002548111155b610208576040517f08c379a00000000000000000000000000000000000000000000000000000000081526004016101ff9061063a565b60405180910390fd5b60018060003373ffffffffffffffffffffffffffffffffffffffff1673ffffffffffffffffffffffffffffffffffffffff16815260200190815260200160002060006101000a81548160ff02191690831515021790555060008082815260200190815260200160002060020160008154809291906102859061079c565b9190505550807fe447c5464cb203c1da94b4db8588d3cbf313ce4a489122f6b88e87f465b2810e60405160405180910390a250565b60025481565b60006020528060005260406000206000915090508060000154908060010180546102e99061076a565b80601f01602080910402602001604051908101604052809291908181526020018280546103159061076a565b80156103625780601f1061033757610100808354040283529160200191610362565b820191906000526020600020905b81548152906001019060200180831161034557829003601f168201915b5050505050908060020154905083565b600060606000808411801561038957506002548411155b6103c8576040517f08c379a00000000000000000000000000000000000000000000000000000000081526004016103bf9061063a565b60405180910390fd5b6000806000868152602001908152602001600020604051806060016040529081600082015481526020016001820180546104019061076a565b80601f016020809104026020016040519081016040528092919081815260200182805461042d9061076a565b801561047a5780601f1061044f5761010080835404028352916020019161047a565b820191906000526020600020905b81548152906001019060200180831161045d57829003601f168201915b505050505081526020016002820154815250509050806000015181602001518260400151935093509350509193909250565b60016020528060005260406000206000915054906101000a900460ff1681565b6000813590506104db81610854565b92915050565b6000813590506104f08161086b565b92915050565b60006020828403121561050857600080fd5b6000610516848285016104cc565b91505092915050565b60006020828403121561053157600080fd5b600061053f848285016104e1565b91505092915050565b61055181610701565b82525050565b6000610562826106d3565b61056c81856106de565b935061057c818560208601610737565b61058581610843565b840191505092915050565b600061059d6015836106de565b91507f496e76616c69642063616e6469646174652049442100000000000000000000006000830152602082019050919050565b60006105dd6016836106de565b91507f596f75206861766520616c726561647920766f746521000000000000000000006000830152602082019050919050565b6106198161072d565b82525050565b60006020820190506106346000830184610548565b92915050565b6000602082019050818103600083015261065381610590565b9050919050565b60006020820190508181036000830152610673816105d0565b9050919050565b600060208201905061068f6000830184610610565b92915050565b60006060820190506106aa6000830186610610565b81810360208301526106bc8185610557565b90506106cb6040830184610610565b949350505050565b600081519050919050565b600082825260208201905092915050565b60006106fa8261070d565b9050919050565b60008115159050919050565b600073ffffffffffffffffffffffffffffffffffffffff82169050919050565b6000819050919050565b60005b8381101561075557808201518184015260208101905061073a565b83811115610764576000848401525b50505050565b6000600282049050600182168061078257607f821691505b6020821081141561079657610795610814565b5b50919050565b60006107a78261072d565b91507fffffffffffffffffffffffffffffffffffffffffffffffffffffffffffffffff8214156107da576107d96107e5565b5b600182019050919050565b7f4e487b7100000000000000000000000000000000000000000000000000000000600052601160045260246000fd5b7f4e487b7100000000000000000000000000000000000000000000000000000000600052602260045260246000fd5b6000601f19601f8301169050919050565b61085d816106ef565b811461086857600080fd5b50565b6108748161072d565b811461087f57600080fd5b5056fea26469706673582212209a4d3a2253ae060622cfe61c34f3099a9fa4d4f9e4751de0045ebd90625322f064736f6c63430008000033",
  "immutableReferences": {},
  "source": "// SPDX-License-Identifier: MIT\r\npragma solidity ^0.8.0;\r\n\r\ncontract Voting {\r\n    struct Candidate {\r\n        uint id;\r\n        string name;\r\n        uint voteCount;\r\n    }\r\n\r\n    mapping(uint => Candidate) public candidates;\r\n    mapping(address => bool) public voters;\r\n    uint public candidatesCount;\r\n\r\n    event VotedEvent (\r\n        uint indexed candidatesId\r\n    );\r\n    \r\n\r\n    constructor() {\r\n        addCandidate(\"Candidate 1\");\r\n        addCandidate(\"Candidate 2\");\r\n    }\r\n\r\n    function addCandidate(string memory _name) private {\r\n        candidatesCount++;\r\n        candidates[candidatesCount] = Candidate(candidatesCount, _name, 0);\r\n    }\r\n\r\n    function vote(uint _candidatesId) public {\r\n        require(!voters[msg.sender], \"You have already vote!\");\r\n        require(_candidatesId > 0 && _candidatesId <= candidatesCount, \"Invalid candidate ID!\");\r\n        \r\n        voters[msg.sender] = true;\r\n        candidates[_candidatesId].voteCount++;\r\n\r\n        emit VotedEvent(_candidatesId);\r\n    }\r\n\r\n    function getCandidate(uint _candidatesId) public view returns (uint, string memory, uint) {\r\n        require(_candidatesId > 0 && _candidatesId <= candidatesCount, \"Invalid candidate ID!\");\r\n        Candidate memory candidate = candidates[_candidatesId];\r\n        return (candidate.id, candidate.name, candidate.voteCount);\r\n    }\r\n}",
  "sourcePath": "C:\\Users\\faris\\voting-system\\contracts\\Voting.sol",
  "compiler": {
    "name": "solc",
    "version": "0.8.0+commit.c7dfd78e.Emscripten.clang"
  },
  "schemaVersion": "3.4.16",
  "updatedAt": "2024-08-12T17:25:47.123Z",
  "networkType": "ethereum",
  "devdoc": {
    "kind": "dev",
    "methods": {},
    "version": 1
  },
  "userdoc": {
    "kind": "user",
    "methods": {},
    "version": 1
  }
}